:100000000C9459150C9400160C9469150C946915F0
:100010000C9469150C9469150C9469150C94691568
:100020000C9469150C9469150C9469150C94691558
:100030000C9469150C9469150C9469150C94691548
:100040000C9469150C9469150C9469150C94691538
:100050000C9469150C9469150C9469150C94691528
:100060000C9469150C9469150C9469150C94691518
:100070000C9469150C9469150C9469150C94691508
:100080000C9469150C9469150C9469150C946915F8
:100090000C9469150C9469150C9469150C946915E8
:1000A0000C9469150C9469150C94691500000000F6
:1000B0000000000000000000000000000000000040
:1000C0000000000000000000000000000000000030
:1000D0000000000000000000000000000000000020
:1000E0000000000000000000000000000000000010
:1000F0000000000000000000000000000000000000
:1001000000000000000000000000000000000000EF
:1001100000000000000000000000000000000000DF
:1001200000000000000000000000000000000000CF
:1001300000000000000000000000000000000000BF
:1001400000000000000000000000000000000000AF
:10015000000000000000000000000000000000009F
:10016000000000000000000000000000000000008F
:10017000000000000000000000000000000000007F
:10018000000000000000000000000000000000006F
:10019000000000000000000000000000000000005F
:1001A000000000000000000000000000000000004F
:1001B000000000000000000000000000000000003F
:1001C000000000000000000000000000000000002F
:1001D000000000000000000000000000000000001F
:1001E000000000000000000000000000000000000F
:1001F00000000000000000000000000001000000FE
:1002000010000100000000000100200004000100B7
:1002100004000100000000000000000000000000D9
:1002200000000000000000000000000000000000CE
:1002300000000000000000000000000000000000BE
:1002400000000000000000000000000000000000AE
:10025000000000000000000000000000000000009E
:10026000000000000000000000000000000000008E
:10027000000000000000000000000000000000007E
:10028000000000000000000000000000000000006E
:10029000000000000000000000000000000000005E
:1002A000000000000000000000000000000000004E
:1002B000000000000000000000000000000000003E
:1002C000000000000000000000000000000000002E
:1002D000000000000000000000000000000000001E
:1002E000000000000000000000000000000000000E
:1002F00000000000000000000000000000000000FE
:1003000000000000000000000000000000000000ED
:1003100000000000000000000000000000000000DD
:1003200000000000000000000000000000000000CD
:1003300000000000000000000000000000000000BD
:1003400000000000000000000000000000000000AD
:10035000000000000000000000000000000000009D
:10036000000000000100000000010100000000008A
:10037000000000000000000000000000000000007D
:10038000000000000000000000000000000000006D
:10039000000000000000000000000000000000005D
:1003A000000000000000000000000000000000004D
:1003B000000000000000000000000000000000003D
:1003C000000000000000000000000000000000002D
:1003D000000000000000000000000000000000001D
:1003E000000000000000000000000000000000000D
:1003F00000000000000000000000000000000000FD
:100400000000000000008200420042004200420062
:1004100042004200420042004200420042004200CC
:1004200042004200420042004200420042004200BC
:100430004200420082008300830083008300830027
:10044000830013001300130081008100410011009C
:10045000000000000000000000000000000000009C
:10046000000000000000000000000000000000008C
:10047000000000000000000000000000000000007C
:10048000000000000000000000000000000000006C
:1009F00000000000000000000200000000000000F5
:100A000000000000000000000000000000000000E6
:100A100000000000000000000000000000000000D6
:100A200000000000000000000000000000000000C6
:100A300000000000000000000000000000000000B6
:100A400000000000000000000000000000000000A6
:100A50000000000000000000000000000000000096
:100A60000000000000000000000000000000000086
:100A70000000000000000000000000000000000076
:100A80000000000000000000000000000000000066
:100A90000000000000000000000000000000000056
:100AA0000000000000000000000000000000000046
:100AB0000000000000000000000000000000000036
:100AC0000000000000000000000000000000000026
:100AD0008000000000000000000000000000000096
:100AE0000000000000000000000000000000000006
:100AF00000000000000000000000000000000000F6
:100B000000000000000000000000000000000000E5
:100B100000000000000000000000000000000000D5
:100B200000000000000000000000000000000000C5
:100B300000000000000000000000000000000000B5
:100B400000000000000000000000000000000100A4
:100B50000000000000000000000000000000000095
:100B60000000000000000000000000000000000085
:100B70000000000000000000000000000000000075
:100B80000000000000000000000000000000000065
:100B90000000000000000000000000000000000055
:100BA0000000000000000000000000000000000045
:100BB0000000000000000000000000000000000035
:100BC0000000000000000000000000000000000025
:100BD0004200820082008200820082008200820045
:100BE00082008200820082008200820082008200F5
:100BF00082008200820082008200820082008200E5
:100C000082008200820082008200820082008200D4
:100C100082008200820082008200820082008200C4
:100C200082008200820082008200820082008200B4
:100C300082008200820082008200820082008200A4
:100C40008200820082008200820082008200820094
:100C50008200820082008200820082008200820084
:100C60008200820082008200820082008200820173
:100C7000820182018201820182008200010000045F
:100C80000004000400040004000400040004000444
:100C90000004000400040004000400040004000434
:100CA0000004000400040004000400040004000424
:100CB000000400040004000400040004000000001C
:100CC0000000000000000000000000000000000024
:100CD0000000000000000000000000000000000014
:100CE00000000000000000000000000001000004FF
:100CF00000040004000400040004000400040004D4
:100D000000040004000400040004000400040004C3
:100D100000040004000400040004000400040004B3
:100D200000040000000000000000000000000000BF
:100D300000000000000000000000000000000000B3
:100D400000000000000000000000000000000100A2
:100D50000000000000000000000000000000000093
:100D60000000000000000000000000000000000083
:100D70000000000000000000000000000000000073
:100D800000000000000000000000810001000100E0
:100D9000010001000100010001000100010001004B
:100DA0000100000000000000000000000000000042
:100DB0000000000000000000000000000000000033
:100DC0004000400040004000400040004100410021
:100DD00041004100830083004200820082008200C3
:100DE0008200820082008200420082008200820033
:100DF00082008200820082008200820083008300E1
:100E000083008200820082008200820082008200D1
:100E1000C200C200C200C2004200420042004200C2
:100E200042004200420043004300430043004300AD
:100E3000430043004300430043004300430043009A
:100E4000430043004300430043004300430080004D
:100E50000008000800080008000800080008000852
:100E60000008000800080008000800080008000842
:100E70000008000800080008000800080008000832
:100E80000008000800080008000800080008000822
:100E9000000800080008000800080000000000002A
:100EA0000000000000000000000000000000000042
:100EB0000000000000000000000000000000000032
:100EC00000008000800080008000800080008200A0
:100ED0008200820082008200820082008200820002
:100EE0008200A300820082008200820082008200D1
:100EF0008200820082008200820082008200100054
:100F000042004200420042004200420042004200D1
:100F100042004200420042004200420042004200C1
:100F20000200420002000200020002000200020071
:100F300002000200020002000200020002000200A1
:100F40000200020002000200030003000300100080
:100F50008200820082008200820082008200820081
:100F60008200820082008200C200420042004200F1
:100F70004200420042004200420042004200420061
:100F80004200420042004200420042004200420051
:100F90004001400140018201820182018201000181
:100FA0000001000100010001000100010001000139
:100FB0000001000100010001000100010001000129
:100FC0000001000100010001000100010001000119
:100FD0008201820082008200820082008200820000
:100FE00082008200820082008200820082008200F1
:100FF00082008200820082008200820082008200E1
:1010000023000200020002000200020002000200AF
:101010000200020002000200020002004200420040
:1010200042004200420042004200420042004200B0
:101030008200020002000200020082004200500012
:10104000420042004200420042006300420042006F
:101050004200420020008200820082008200820062
:101060008200820082008200820082008200820070
:101070008200820082008200820082008200820060
:101080008200820082004200420042004200420090
:1010900042004200420042004200020042002000A2
:1010A000420142004200420042004200420042002F
:1010B0004200420042004200420042004200420020
:1010C0004200420042004200420042004200420010
:1010D000820082002300020002004200820083009E
:1010E00082004200420002004200020002001000A2
:1010F00082008200820082008200820082008200E0
:1011000082008200820082008200820082008200CF
:1011100082008200820082008200820082008200BF
:101120008200820082002000820082008200820011
:10113000820082008200820082008200820082009F
:101140008200820082018201820182018201820189
:1011500042010201020102010201020142010201F7
:101160000201020102014201020002010201020128
:1011700002010201420120014201420142014201F9
:1011800042014201820082008200820082008200CD
:10119000820082008200820082008200820082003F
:1011A000820082008200820082008200820042006F
:1011B00063004200420042004200420042004200FE
:1011C000420042004200420042004200420042000F
:1011D00042004200420042004200420042004200FF
:1011E00042004200420042004200420042004200EF
:1011F00042004200420042004200420042004200DF
:1012000042004200420042004200420042004200CE
:101210004200630043004300630063004300020098
:1012200002000200020002000200020002000200AE
:10123000020002000200020002008200820082001E
:10124000820082008200820082008200820082008E
:10125000820082008200820082008200820082007E
:101260008200830083008300830083008300830067
:1012700083008300830083008300120012001200A9
:1012800012001200120012001200120012001200CE
:1012900012001200120010001000100010001000C8
:1012A00010001000100010001000100010001000BE
:1012B0001000100002000200020002000200020002
:1012C00002000200020002002300020002000200ED
:1012D00002000200020002000200020002000200FE
:1012E00002000200020002000200020002000200EE
:1012F00002000200020003000300030003000300D9
:1013000003000300020002000200020002000200CB
:1013100002000200820082000200020002000200BD
:10132000020002000200420042004300430042006B
:1013300042001000420042004200420042004200CF
:10134000420042004200420042004200420042008D
:1013500042004200820082008200820082008200FD
:10136000820082008200820082008200820082006D
:10137000820082008200820082008200820082005D
:101380008200820082008200420142014201420149
:101390004201420142014201420142014201420135
:1013A0004201420142014201420142004200420028
:1013B000420042004200420042004200420042001D
:1013C000420042004200420002008200820082008D
:1013D00082008200820082008200820082008200FD
:1013E00082008200820082008201820182018200EA
:1013F00082008200820082004200420042004200DD
:10140000420042004200420042008200820082000C
:1014100082008200820082008200820082008200BC
:1014200082008200820082008200820082008200AC
:10143000820082008200820082008200820082009C
:101440008200230023002300230023002300220026
:1014500022002000400000040004000400040004F6
:10146000000400040004000400040004000400045C
:10147000000400040004000400040004000400044C
:10148000000400040004000400040004000400043C
:10149000000400040004000400040004000400042C
:1014A0000300030003000300030003000300030024
:1014B00003000300030003000300830043008300D4
:1014C0008300830083000201020102010201020184
:1014D00002010201020102010201020102010201F4
:1014E0000201020102010201020002004200420068
:1014F000430042004200420042000200100002008D
:10150000020002000200420042004200420042008B
:10151000420042004200420042004200420082017A
:1015200082008200820082008200820082008200AB
:10153000820082008200820082008200820082009B
:1015400082008300830043004300430043004300C4
:101550004300430043004300430043004300430073
:10156000430042004200420042004200420042006A
:10157000420042004200420042004200420042005B
:10158000420042004200420042004200420042004B
:10159000420042004200420042004200420042003B
:1015A000420042004200420042004200420042002B
:1015B000420042004200420042004200420042001B
:1015C000420042004200420042004200420042000B
:1015D00042004200420042004200420042004200FB
:1015E00042004200420042004200420042004200EB
:1015F00042004200420042004200420042004200DB
:1016000042004200420042004200420042004200CA
:1016100042004200420042004200420042004202B8
:101620004200420042008300830083008300830065
:101630008300830083008300830083008300830092
:101640008300830081008100810081008000800090
:101650008000800080008200820082008200820080
:1016600082008200820002010200020002000200E9
:10167000020002000200020002000200020002005A
:10168000020002000200020002000200020002004A
:10169000020002000200020002000200020002003A
:1016A000020002000200020002000200020002002A
:1016B000020002000200020002000200820082001A
:1016C000820082008200820082008200820082000A
:1016D00082008200A30082008200820082008200D9
:1016E00082008200820082008200820082008200EA
:1016F00082008200820082008200820082008200DA
:1017000082008200820082008200820082008200C9
:1017100082008200820082008200820082008200B9
:1017200082008200820082008200820082008200A9
:101730008200820082008200820082008200820099
:101740008200820082008200820082008200820089
:101750008200820082008200820082008200820079
:101760008200820082008200820082008200820069
:101770008200820082008200820082008200820059
:101780008200820082008200820082008200820049
:101790008300830083008300830083008300830031
:1017A0008300830083008300830083008300830021
:1017B0008300830083008300830083008300820012
:1017C0008200820082008200820082008200820009
:1017D00082008200820082008200820082008200F9
:1017E00082008200820082008200820082008200E9
:1017F00082008200830083008300830083008300D3
:1018000083008300820082008200820082008200C6
:1018100082008200820082008200C300C300C300F5
:1018200043004300430043004300430043004200A1
:101830004200420042004200420042004200420098
:101840004200420042004200420042004200420088
:101850004200420042004200420042004200420078
:101860004200420042004200420042004200420068
:101870004200420042004200420042004200630037
:101880004200420042004200830083008300830044
:101890008300830083008300830083008300830030
:1018A0008300830083008300830083008300830020
:1018B0008300830083008300830083008300830010
:1018C0008300830083008300830083008300830000
:1018D0008300830042004200420042004200420076
:1018E0004200420182008200820082000200020067
:1018F00002000200020002000200020002000200D8
:1019000002000200020002000200020002000200C7
:1019100002000200020002000200020002000200B7
:101920000200020042004200420042004200420027
:101930004200420042004200420042000200020017
:101940000200020002000201020002000200020086
:101950000200020002000200020002000200020077
:101960000200020002000200020002000200020067
:101970000200020002000200020002000200020057
:101980000200020002000200020102010200020045
:101990000200020002000200020002000200020037
:1019A0000200020002000200020002000200020027
:1019B0000200020002000200020002000200020017
:1019C0000200020002000200020002000201020105
:1019D00002010201020182008200820082000200F4
:1019E00002000200020002000200020002000200E7
:1019F00002000200020002000200020002000200D7
:101A000002000200020002000200020002000200C6
:101A10000200020002004200420042004200420076
:101A200042004200420042004200420042004200A6
:101A30004200420042004200820042024200420054
:101A40008200820082008200820082008200820086
:101A50008200820083008300830083008300830070
:101A6000830083008300830083008300830083005E
:101A7000C30003000300030003000300030003008E
:101A8000030003000300030003000300030003003E
:101A9000030003000300030003000300030003002E
:101AA000030003000300030003000300030003001E
:101AB0000300030002000200020002000200020014
:101AC00002000300020242004200420042004200C3
:101AD00042004200420042004200020002000200B6
:101AE00002000200020003020300030003000300DF
:101AF00043004300430043004300430043004300CE
:101B000043004300430043004300430043004300BD
:101B100043004200420042004200420042004200B4
:101B200042004200420042004200420042004200A5
:101B30004200420042004200420042004200420095
:101B40004200420042004200420042004200420085
:101B50004200420042004200420042004200520263
:101B60004200520042005200420052004200520025
:101B70004200520042005200420052004200520015
:101B80004200520042005200420052004200520005
:101B900042005200420052004200520042005200F5
:101BA00042005200420052004200520042005200E5
:101BB00042005200520052004200420042004200E5
:101BC00042004200430043004300430043004300FF
:101BD00043004300430043004300430043004300ED
:101BE00043004300430043004300430043004300DD
:101BF00043004300430043004300430043004300CD
:101C000043004300430043004300430043004300BC
:101C100043004300430043004300430043004300AC
:101C2000430043004300430043004300430043009C
:101C30004300420042004200420042006300630051
:101C4000630063006300630063006300630063007C
:101C5000630063006300630063006300630063006C
:101C6000630063006300630063006300630063005C
:101C7000630043004300430043004300430043002C
:101C8000430043004300430043004300430043003C
:101C9000430043004300430043004300430043002C
:101CA000430043004300430043004300430042001D
:101CB0004200420042004200420042004300430012
:101CC00043004300430043004300420042004200FF
:101CD00042004200420042004200420042004200F4
:101CE00042004200430043004200420042004200E2
:101CF00042004200420042004200420042004200D4
:101D000042004200420042004200420042004200C3
:101D100042004200020002004200420002000200B3
:101D200002000200020002000200420042004200E3
:101D30004200420042004200420042004200420093
:101D40004200420042004200420042004200420083
:101D50004200420042004200420042004200420073
:101D60004200420042004200420042004200420063
:101D70004200420042004200420042004200420053
:101D80004200420042004200420042004200420043
:101D90004200420042004200420042004200420033
:101DA0004200420042004200420042004200420023
:101DB0004200420042024200420042004200420011
:101DC0004200420042004200420042004200420003
:101DD00042004200420042004200420042004200F3
:101DE00042004200420042004200420042004200E3
:101DF00042004200420042004200420042004200D3
:101E000042004200420042004200420042004200C2
:101E100082008200820082008200820082008200B2
:101E200082028200820082008200820082008200A0
:101E30008200820082008200820082008200820092
:101E40008200820082008200820082008200820082
:101E50008200820082008200820082008200820072
:101E60008200820082008200820082008200820062
:101E70008200820082028200820082008200820050
:101E80008200820082008200820082008200820042
:101E90008200820082008200820082008200820032
:101EA000820082008200820083008300830083001E
:101EB000830083008300830082008200820082000E
:101EC0008200820082008200820082008200820002
:101ED00082008200820082008200820082008200F2
:101EE00082008200830083008300830083008300DC
:101EF00083008300830083008300830083008300CA
:101F000083008300830083008300820082008200BC
:101F100082008200820082008200820082008200B1
:101F200082008200820082008200820082008200A1
:101F30008200C200C200C200C200C200C200C200D1
:101F4000C200C200C200C200C200C200C200C20081
:101F5000C200C200C200C200C200C200C200C20071
:101F6000C200C200C200C200C200C200C200C20061
:101F7000C200C200C200C200C200C200C200C20051
:101F8000C200C200C200C200C200C200C200C20041
:101F9000C200C200C200C200C200C200C200C20031
:101FA000C200C200C200C200C200C200C200C20021
:101FB000C200C200C200C200C200C200C200C20011
:101FC000C200C200C200C200C200C200C200C20001
:101FD000C200C200C200C200C200C200C200C200F1
:101FE000C200C200C200C200C200C200C200C200E1
:101FF000C200C200C200C200C200C200C200C200D1
:10200000C200C20082008200820082008200820040
:1020100083008300830083008300830083008300A8
:102020008300830083008300830083028302830292
:102030008302830283028302830083008300830080
:102040008200820082008200820082008200820080
:102050008200820082008200820082008200820070
:102060008200820082008200820082008200820060
:102070008200820082008200820082008200820050
:102080008200820082008200820082008200820040
:102090008200820082008200820082008200820030
:1020A0008200820082008200820082008200820020
:1020B0008200820082008200820082008200820010
:1020C0008200820082008200820082008200820000
:1020D0008200820082008200820082008200C300AF
:1020E00002000200020002000200020002000200E0
:1020F00002000200020002000200020002000200D0
:1021000002000200020002000200020002000200BF
:102110000200420042004200420042004200000829
:10212000000800080008000800080008000800086F
:10213000000800080008000800080008000800085F
:10214000000800080008000800080008000800084F
:10215000000800080008000800080008000800083F
:10216000000800080008420042004200420042000D
:10217000420042004200420042004200420042004F
:10218000420042004200420042004200420042003F
:1021900042004200420043004300430003000300AA
:1021A000020002000200020082018200820082001E
:1021B000020002000200020002000200420042008F
:1021C00042004200420042004200420042004200FF
:1021D000420042004200420042008200820082002F
:1021E00082008200820082008200820082008200DF
:1021F00082008200820082008200820082008200CF
:10220000920292008200920082009200820092006C
:10221000820092008200920082009200820092006E
:10222000820092008200920082009200820092005E
:10223000820092008200920082009200820092004E
:10224000820092008200920082009200820092003E
:10225000820092008200920082009200820092002E
:10226000820082008200820082008200820082005E
:10227000820082008200820082008200820082004E
:10228000820082008200820082008200820082003E
:10229000820082008200820082008200820082002E
:1022A000820082008200820082008200820082001E
:1022B000820082008200820082008200820082000E
:1022C00082008200820082008200820082008200FE
:1022D00082008200820082008200820082008200EE
:1022E00082008200820282008200820082008200DC
:1022F0008200C2008200820082008200820082008E
:1023000082008200820082008200820082008200BD
:1023100082008300820082008200820082008200AC
:10232000820082008202820082008200820082009B
:10233000820082008200820082008200820082008D
:10234000820082008200820082008200820082007D
:102350008200830083008300830083008300830066
:102360008300830083008300830083008300830055
:102370008300830083008300830083008300830045
:1023800083008300430043004300430043004300B5
:102390004300430043004300430043004300430025
:1023A0004300430043004300430042004200420018
:1023B000420042004200420042024200420042000B
:1023C00042004200420042004200420042004200FD
:1023D00042004200420042004200420042004200ED
:1023E00042004200420042004200420042004200DD
:1023F00042004200420042008200820082008200CD
:1024000002000202020002000200020082008200BA
:1024100082008200820082008200820082008200AC
:10242000820082008200820082008200820082009C
:10243000820082008200820082008200820082008C
:10244000820082008200820082008200820082007C
:10245000820082008200820082008200820082006C
:102460008200830083008300830082008200820058
:10247000820082008200820082008200820082004C
:10248000820082008200820082008200820082003C
:10249000820082008200820082008200820082002C
:1024A000820082008200820082008200420042009C
:1024B00063024300420042004200420042004200E8
:1024C00042004200420042004200420042004200FC
:1024D00042004200420042004200420042004200EC
:1024E00042004200420042004200420042004200DC
:1024F00042004200420042004200420042004200CC
:1025000042004200420042004200420042004200BB
:102510004200A300830083008300830083008300C4
:102520008300830083008300830083008300830093
:102530008300830082008200820082008200820089
:10254000820082008200820082008200820082007B
:10255000820082008200820082008200820082006B
:10256000820082008200820082008200820082005B
:10257000820082008200820082008200820082004B
:1025800082004300430042004200420042008200B9
:10259000820082008200820082008200820082002B
:1025A000820082008200820082008200820082001B
:1025B000820082008200820082008200820082000B
:1025C0008200820082004200430043004300430037
:1025D00043004300830003008300830083008300E3
:1025E00083008300830083008300830083008200D4
:1025F000820082008200820002008200820082004B
:1026000082008200820082008200820082008200BA
:10261000820082008200820082008200820002002A
:102620000200830083008300830008000000000094
:10263000000000000000000000000000000000009A
:10264000000000000000000000000000000000008A
:10265000000000000000000000000000000000007A
:10266000000000000000000000000000000000006A
:10267000000000000000000000000000000000005A
:10268000000000000000000000000000000000004A
:10269000000000000000000000000000000000003A
:1026A000000000000000000000000000000000002A
:1026B000000000000000000000000000000000001A
:1026C000000000000000000000000000000000000A
:1026D00000000000000000000000000000000000FA
:1026E00000000000000000000000000000000000EA
:1026F00000000000000000000000000000000000DA
:1027000000000000000000000000000000000000C9
:1027100000000000000000000000000000000000B9
:10272000000000000000000000008B008300830018
:102730008300830083008300830083008300830081
:1027400083008300820082008200820040014000FA
:1027500040004200420042004200800080008000B1
:102760004200000000000000000000000000000027
:10277000000000000000000000002704AA00AA00DA
:10278000AA00AA00AA00AA00AA00AA00AA00AA00F9
:10279000AA00AA00AA00AA00AA00AA00AA00AA00E9
:1027A000AA00AA00AA00AA00AA00AA00AA00AA00D9
:1027B000AA00AA00AA00AA00AA00AA00AA00AA00C9
:1027C000AA00AA00AA00AA00AA00AA00AA00AA00B9
:1027D000AA00AA00AA00AA00AA00AA00AA00AA00A9
:1027E000AA00AA00AA00AA00AA00AA00AA00AA0099
:1027F000AA00AA00AA00AA00AA00AA00AA00AA0089
:10280000AA00AA00AA00AA00AA00AA00AA00AA0078
:10281000AA00AA00AA00AA00AA00AA00AA00AA0068
:10282000AA00AA00AA00AA00AA00AA00AA00AA0058
:10283000AA00AA00AA00AA00AA00AA00AA00AA0048
:10284000AA00AA00D600C90044000400FE0041000E
:10285000B0003A00080047008F000B0080008000A5
:1028600007001700FE004100B000F9004200980088
:10287000B500D300D3001700FF00FF00450008009B
:10288000430098001D00B10098000300B100E30070
:1028900095001F00A90088009500280058007700C7
:1028A000C800FD00B1004C0095009800A100400058
:1028B0009500D500D500D00004004700D800800066
:1028C000FF0095000400430000002F000E00C5002B
:1028D000D5005E003100B100800043000400950087
:1028E000ED009A00B100D50080009500E700FF00E0
:1028F00011009900F500C00011009900F500C0001A
:1029000011000B00AF004500C000FD008200410037
:10291000FE00B900F2002000530008006F00FD0027
:1029200000004100FE00B90000007F0053000100DC
:102930006F00C0003A005A007F007F009400F00052
:102940000000900000001C002300DF000B00C0000E
:102950009000000020005300F9008100C100FE003B
:102960005300060025009F000B00E00067009F0059
:102970009500C000B1000000800095000F00990094
:102980000000400099000000C00013000B00EF00A1
:10299000A500A8009400040055000F00B000A50099
:1029A00018000F00900094000800A1005F0095003F
:1029B0009000A1004800D600A500DF0025005F00C0
:1029C0000B002C002500680011000B00C00058000F
:1029D0006F007B0011000B00C0005C006B007B00EF
:1029E000030040000B0020009600F0006B00FB008D
:1029F000030060000B0020009600F7006F00FB0052
:102A0000A900DF001500ED00BF00650018000700F9
:102A100008000F00F000070004000B0080005C00BD
:102A20006500E80007000C000B00A0000B0002008E
:102A3000580058005800E900BF0043000C00260071
:102A4000240095000A000000F100BE00C100FE0055
:102A500095002000E000F100FE00C100FE00D7005C
:102A60005500050080008000ED00BF0023001F001E
:102A70000C00E000A5007F0023001F000B00800079
:102A8000D7001200040062006000160052005200DD
:102A9000520052000400620060001100080027008C
:102AA00047000C001900F1009100E100FE00D60083
:102AB000D60011241FBECFEFDAE0DEBFCDBF21E08C
:102AC000A0E0B1E001C01D92A730B207E1F703D04A
:102AD00000C10C94000080E88093610010926100B6
:102AE000279A569A519850985E982FEF39E648E108
:102AF000215030404040E1F700C00000F8948FEFD3
:102B00008CBB82E08093690081E08DBB78942CEAD5
:102B100030E090E080E061E0F9014591549140930C
:102B200005015093060160930401AC014F705527D5
:102B3000452B09F457C05E9840910401411154C0DF
:102B400001962E5F3F4F843B910531F785E090E081
:102B50005E9A2FEF3FE047E2215030404040E1F7DE
:102B600000C000005E982FEF33EC49E02150304068
:102B70004040E1F700C00000019751F724E132E046
:102B800090E080E061E0F9014591549140930501A6
:102B90005093060160930401AC014F705527452BFB
:102BA00041F15E9840910401411125C001962E5FCC
:102BB0003F4F8F3444E1940731F75E9A8FEF93ECE7
:102BC00029E0815090402040E1F700C000005E986D
:102BD0003FEF4FE087E2315040408040E1F700C0D6
:102BE0000000EBCF5E9AA8CF45E04A95F1F70000D0
:102BF000A3CF5E9AD7CF45E04A95F1F70000D2CF38
:102C00001F920F920FB60F9211248F93EF93FF93A1
:102C1000109203011092020180910501809301013D
:102C200080910201823020F02F981092040125C07B
:102C30008091010180FF29C02F9880910101869524
:102C400080930101809103018F5F883001F18093AF
:102C5000030110920001499B04C080910001803162
:102C600020F149990AC010920001499904C080914D
:102C70000001803120F14999D3CFFF91EF918F91DD
:102C80000F900FBE0F901F9018952F9AD6CF1092CD
:102C90000301E0910201EF5FE0930201F0E0EB5FDE
:102CA000FE4F808180930101D4CF82E08A95F1F7B5
:102CB00000C0809100018F5F80930001CCCF82E043
:102CC0008A95F1F700C0809100018F5F8093000129
:062CD000CCCFF894FFCF09
:00000001FF
